:020000040800F2
:100000008014002081050008D9020008DB020008E6
:10001000E7020008F3020008FF02000800000000E9
:100020000000000000000000000000000B030008BA
:100030000D03000800000000970500080F030008EA
:100040009B0500089B0500089B0500081D03000890
:100050009B0500089B0500081B0300089B05000882
:100060009B0500089B0500089B0500089B050008F0
:100070009B0500089B0500089B0500089B050008E0
:100080009B0500089B0500089B0500089B050008D0
:100090009B0500089B0500089B0500089B050008C0
:1000A0009B0500089B0500089B0500089B050008B0
:1000B0005F3700086F7100089B0500089B0500086A
:1000C0009B0500089B0500089B0500089B05000890
:1000D0009B050008FD7700089B050008354E0008C9
:1000E0009B0500089B0500089B0500089B05000870
:1000F0009B0500089B0500089B0500089B05000860
:100100009B0500089B0500089B0500089B0500084F
:100110009B0500089B0500089B0500089B0500083F
:100120009B0500089B0500089B0500089B0500082F
:100130009B0500089B0500089B0500089B0500081F
:1001400000000000000000000000000000000000AF
:100150009B0500089B0500089B0500089B050008FF
:100160009B0500089B0500089B0500089B050008EF
:100170009B0500089B0500089B0500089B050008DF
:100180009B05000800F002F800F096F80AA090E83D
:10019000000C82448344AAF10107DA4501D100F042
:1001A0008BF8AFF2090EBAE80F0013F0010F18BF79
:1001B000FB1A43F001031847D8C60000F8C6000038
:1001C000103A24BF78C878C1FAD8520724BF30C883
:1001D00030C144BF04680C60704700000023002455
:1001E00000250026103A28BF78C1FBD8520728BF47
:1001F00030C148BF0B6070476E2908F0238070291A
:1002000007F0C18466290BF01B8165290BF018816A
:1002100067290BF0158161290BF0148103681B0A13
:1002200028BF41F08001692907F03284642907F072
:100230002F84752907F02C846F2908F020837829F2
:1002400007F08D84E92908F0BB82E42908F0B88220
:10025000F52908F0B582EF2908F01D83F82907F089
:100260008C840368DB0928BF41F08001632908F012
:100270003C82732908F04182E32908F04B85F32979
:1002800008F05085002070471FB50BF0D4F89DE8AA
:10029000030007F02BFF08F00DFB040000200021F5
:1002A0000AF058FA401C6060002000210AF068FA49
:1002B000E0601FBD10B510BD08F0D2FD1146FFF77C
:1002C000E3FF02F0D7FF08F0F0FD03B4FFF7F2FF01
:1002D00003BC08F061FE0000704711A11F4802F046
:1002E000FEFD00BFFEE71EA11C4802F0F8FD00BFA6
:1002F000FEE72AA1194802F0F2FD00BFFEE736A191
:10030000164802F0ECFD00BFFEE770477047424818
:100310000068401C40490860704770477047000003
:100320000D0A2A2A2A2A2A2A2A2A2A2A2A2A2A2A6A
:100330002A2A2A2A2A486172644661756C745F48C9
:10034000616E646C65722A2A2A2A2A2A2A2A2A2A93
:100350002A2A2A2A2A2A2A2A2A0D0A000044004088
:100360000D0A2A2A2A2A2A2A2A2A2A2A2A2A2A2A2A
:100370002A2A2A2A2A4D656D4D616E6167655F489C
:10038000616E646C65722A2A2A2A2A2A2A2A2A2A53
:100390002A2A2A2A2A2A2A2A2A0D0A000D0A2A2A61
:1003A0002A2A2A2A2A2A2A2A2A2A2A2A2A2A2A2AAD
:1003B0002A4275734661756C745F48616E646C6542
:1003C000722A2A2A2A2A2A2A2A2A2A2A2A2A2A2A45
:1003D0002A2A2A2A0D0A00000D0A2A2A2A2A2A2A4B
:1003E0002A2A2A2A2A2A2A2A2A2A2A2A2A557361C2
:1003F00067654661756C745F48616E646C65722AEE
:100400002A2A2A2A2A2A2A2A2A2A2A2A2A2A2A2A4C
:100410002A2A0D0A00000000080000205048006849
:1004200040F470004E4908604E48006820F001001A
:10043000401C4C49086000BF4A480068C0F34000B7
:100440000028F9D04748406820F00300454948603B
:1004500000BF44484068C0F381000028F9D14148FA
:100460000068414908403F4908600020486008632F
:100470004FF41F008860C80339498039086070470D
:100480002DE9F0470026002400250027A046A146BC
:1004900000F000FB8246BAF1000F06D0BAF1010F5E
:1004A00015D0BAF1020F46D115E02E48406DC0F3C9
:1004B000402040B12B48006BC0F3406018B12B487E
:1004C0002B49086002E02B482949086037E0294899
:1004D0002749086033E023484068C0F300472148BB
:1004E0004068C0F383441F484068C0F341750DB9AC
:1004F0000F2C03D12801401C044400E0A41C27B9A0
:100500001D4860431A49086014E016484068C0F36B
:10051000404058B11348406DC0F30136B01C154936
:10052000B1FBF0F060431249086003E011486043FA
:100530000F49086003E00F480D49086000BF00BF85
:1005400008484068C0F303180C4810F808900848A1
:10055000006820FA09F006490860BDE8F08700004D
:1005600088ED00E000100240FFFFF2FE006CDC02AC
:100570000000002000127A0000093D0038B5000894
:100580000948804709480047FEE7FEE7FEE7FEE727
:10059000FEE7FEE7FEE7FEE7FEE7FEE70448054963
:1005A000054A064B704700001D040008850100083D
:1005B000800E002080140020801000208010002079
:1005C000F848006820F00100401CF649086000BFB0
:1005D000F4480068C0F340000028F9D0F1484068B2
:1005E00020F00300EF49486000BFEE484068C0F3C8
:1005F00081000028F9D1EB480068EB490840E9493F
:1006000008600020486008634FF41F00886070474E
:10061000E449096A60F38201E24A11627047E149E4
:10062000096860F39241DF4A1160704710B50146D6
:100630000020DC4B03EB1142126801F01F04012380
:10064000A3401A4001F01F040123A3409A4200D0A6
:1006500000E0012010BD01460020A1F50022082A7B
:100660004DD2DFE802F004101C28344C4C40CD4A37
:10067000926802F001022AB1CA4A9268C2F30022CB
:1006800002B101203BE0C74A9268C2F340022AB19E
:10069000C44A9268C2F3402202B101202FE0C14A4D
:1006A0009268C2F380022AB1BE4A9268C2F38022E5
:1006B00002B1012023E0BB4A9268C2F3C0022AB112
:1006C000B84A9268C2F3C02202B1012017E0B54ACD
:1006D0009268C2F300122AB1B24A9268C2F30032A1
:1006E00002B101200BE0AF4A9268C2F3C0122AB1F6
:1006F000AC4A1268C2F3C04202B1012000BF00BF81
:10070000704730B50024002500E0641C1120FFF77D
:100710008DFF012802D0B4F5405FF6D31120FFF71A
:1007200085FF012801D0002500E00125284630BDC5
:100730009C49096860F387019A4A1160704799499A
:10074000096B21F0FF015A31964A1163114609687D
:1007500060F30F2111601146096B21F0FF01116355
:10076000704710B501290DD18E4B03EB1042126872
:1007700000F01F040123A3401A438A4C04EB1043EA
:100780001A600CE0874B03EB1042126800F01F0464
:100790000123A3409A43834C04EB10431A6010BD1D
:1007A00010B501290DD17F4B03EB1042126800F008
:1007B0001F040123A3401A437A4C04EB10431A6030
:1007C0000CE0784B03EB1042126800F01F04012389
:1007D000A3409A43734C04EB10431A6010BD10B54C
:1007E00001290DD16F4B03EB1042126800F01F047A
:1007F0000123A3401A436B4C04EB10431A600CE036
:10080000684B03EB1042126800F01F040123A34061
:100810009A43644C04EB10431A6010BD052827D29C
:10082000DFE800F0030A11181F005E4A126861F346
:1008300000025C4B1A601CE05A4A126861F31042D5
:10084000584B1A6015E0574A126861F31862554B0D
:100850001A600EE0534A126A61F30002514B1A62A9
:1008600007E0504A526A61F300024E4B5A6200E0C0
:1008700000BF00BF70474D4A811A904218D009DC72
:10088000A0F50021082959D2DFE801F0222B343DE0
:100890004658584F891E062950D2DFE801F003045C
:1008A0000506070800BF00BF00BF00BF00BF00BFB4
:1008B0003C49496A21F0807101F18071394A5162E5
:1008C00000BF3849496AC1F300610029F9D136E017
:1008D0003449896821F4803101F58031314A9160D1
:1008E0002DE03049896821F4003101F500312D4AAD
:1008F000916024E02B49896821F4802101F5802151
:10090000284A91601BE02749896821F4002101F5FC
:100910000021244A916012E02249896821F4801163
:1009200001F580111F4A916009E01E49896821F490
:10093000000101F500011B4A916000E000BF00BF0B
:1009400070471849096A60F30921164A1162704715
:100950001449096A60F3CF31124A11627047114994
:10096000496860F307110F4A516070470D494968A3
:1009700060F30A210B4A516070470A49496860F3E5
:10098000CD21084A516070470649496860F38F31AC
:10099000044A516082080349496862F31C71014AA4
:1009A0005160704700100240FFFFF2FE1800240063
:1009B000B249496860F39751B04A51608208AF4923
:1009C000496862F3DB61AD4A51607047AB49096821
:1009D00060F3D341A94A11607047A849096A60F3DE
:1009E0001041A64A1162704710B568B9A34B5B6805
:1009F00023F48033A14C636023461B6B23F0007308
:100A000003F10073236317E09C4B5B6823F480338E
:100A100003F58033994C6360012805D123465B6858
:100A200023F40033636007E0944B5B6823F40033E6
:100A300003F50033914C6360904B5B6861F3954321
:100A40008E4C63600C098D4B5B6864F35E738B4C5A
:100A5000636023465B6862F3DF73636010BD8749A0
:100A6000496860F30101854A516000BF00BF00BFC3
:100A700000BF00BF00BF00BF00BF00BF00BF00BF7E
:100A800000BF00BF00BF00BF00BF00BF00BF00BF6E
:100A900000BF704779484068C0F3810070472DE976
:100AA000F041014600270022002590460023002443
:100AB000FFF7F0FF064626B1012E12D0022E43D1D9
:100AC00012E06E48406DC0F3402038B16B48006BB7
:100AD000C0F3406010B16A48086001E069480860EE
:100AE00035E06848086032E064484068C0F3004878
:100AF00062484068C0F3834260484068C0F3417573
:100B00000DB90F2A03D12801401C024400E0921CB9
:100B1000B8F1000F03D15C485043086013E0574818
:100B20004068C0F3404058B15448406DC0F30137AD
:100B3000B81CDFF850C1BCFBF0F05043086002E085
:100B400050485043086002E04E48086000BF00BFB4
:100B50004A484068C0F303134C48C45C0868E0404E
:100B6000486046484068C0F302234948C45C48686E
:100B7000E040C86041484068C0F3C2234548C45CB7
:100B80004868E04088603D484068C0F300733B48D7
:100B90004068C0F3813040EA83033F48C45C886802
:100BA000B0FBF4F00861BDE8F0813449496860F3B6
:100BB0001A61324A5160C2083049096B62F3104130
:100BC0002E4A11637047012905D12C4A92680243CD
:100BD0002A4B9A6004E0294A92688243274B9A6024
:100BE0007047012807D12549496D21F03001303186
:100BF000224A516505E02149496D21F030011F4A23
:100C0000516570471D49C96D60F300011B4AD165EC
:100C100070471A49096B60F35961184A11637047AC
:100C200000B503460120FFF7F4FF1448406D63F35D
:100C300049201249486500BD10B50446012C01D178
:100C4000FFF7EEFF0D48406D64F308200B4948653F
:100C500010BD0A49096D60F31041084A11657047DB
:100C60000649496D60F30D31044A516570470349E7
:100C7000096B60F31F71014A116370470010024055
:100C8000006CDC0200127A0000093D0048B5000843
:100C900058B5000860B5000868B500080146002096
:100CA00001F0E04221F0E0414AB1B2F1805F0CD0A6
:100CB000B2F1005F0FD0B2F1804F19D112E0FE4BBC
:100CC000DB680B4003B1012013E0FB4BDB6C0B40F6
:100CD00003B101200DE0F84B8C331B680B4003B1CE
:100CE000012006E0F44BDB690B4003B1012000E07A
:100CF00000BF00BF704700F0E04120F0E04031B19C
:100D0000B1F1805F06D0B1F1005F0AD105E0EA4A97
:100D1000D06007E0E84AD06404E0E74A8C32106013
:100D200000E000BF00BF70470320E349C96801F03D
:100D3000010109B100200EE0DF49C968C1F380015B
:100D400009B1012007E0DC49C968C1F3001109B10C
:100D5000022000E0032070470320D749C96801F052
:100D6000010109B100200EE0D349C968C1F3800137
:100D700009B1012007E0D049C968C1F3001109B1E8
:100D8000022000E0032070470320CB49C96C01F02A
:100D9000010109B100200EE0C749C96CC1F380010F
:100DA00009B1012007E0C449C96CC1F3001109B1C0
:100DB000022000E0032070470320BF498C310968FE
:100DC00001F0010109B1002010E0BB498C31096834
:100DD000C1F3800109B1012008E0B7498C310968ED
:100DE000C1F3001109B1022000E00320704700B5F3
:100DF00002460323FFF798FF034603E0FFF794FF43
:100E00000346521E0BB9002AF8D102B90423184632
:100E100000BD00B502460323FFF79EFF034603E033
:100E2000FFF79AFF0346521E0BB9002AF8D102B908
:100E30000423184600BD00B502460323FFF7A4FFB4
:100E4000034603E0FFF7A0FF0346521E0BB9002A3A
:100E5000F8D102B90423184600BD00B502460323A9
:100E6000FFF7AAFF034603E0FFF7A6FF0346521E63
:100E70000BB9002AF8D102B90423184600BD8F48E7
:100E80008D4948608E4848608C4848648C48486466
:100E900070478A4888494860894848607047874851
:100EA000854948648648486470478448824984314B
:100EB000086083488049C1F8840082480068704710
:100EC0007D48006920F0800080307B490861084639
:100ED000006D20F08000803008657047764800691A
:100EE00020F0800080307449086170477248006DBE
:100EF00020F0800080307049086570476E4890305F
:100F0000006820F0800080306B49C1F89000704785
:100F10004FF0046000686C4800686C4800687047D7
:100F200030B504460325B4F1006F1BD368488442F2
:100F300018D86148006920F00200801C5E490861F1
:100F400008464461006920F04000403008614804D0
:100F5000FFF75FFF05465848006920F00200564938
:100F6000086146E05A48401C84421BD3B4F1016F2B
:100F700018D25148006D20F00200801C4E490865CF
:100F800008464465006D20F0400040300865480484
:100F9000FFF751FF05464848006D20F00200464922
:100FA000086526E0B4F1046F23D34348903000680D
:100FB00020F00200801C4049C1F890000846C0F8AB
:100FC00094403D489030006820F0400040303A495D
:100FD000903108604FF0FF30FFF73FFF054636487D
:100FE000D0F8900020F00200334990310860FFF7FC
:100FF0008FFF284630BD10B503242F48006920F02C
:101000000400001D2C4908610846006920F04000DA
:10101000403008614804FFF7FCFE0446264800699A
:1010200020F0040024490861032C15D10846006D06
:1010300020F00400001D08650846006D20F0400007
:10104000403008654804FFF7F6FE04461A48006D74
:1010500020F0040018490865204610BD10B503248F
:101060001548006920F00400001D13490861084676
:10107000006920F04000403008614804FFF7C9FED5
:1010800004460D48006920F004000B490861204621
:1010900010BD10B503240848006D20F00400001DA9
:1010A000054908650846006D20F04000403008659D
:1010B0004804FFF7C0FE0DE0002002402301674511
:1010C000AB89EFCD00F8FF1F00104008002040085A
:1010D000FFFF07080446F748006D20F00400F549BB
:1010E0000865204610BD10B50324F2489030006812
:1010F00020F00400001DEF49C1F89000ED48903049
:10110000006820F040004030C1F89000201FFFF739
:10111000A4FE0446E748D0F8900020F00400E5491A
:10112000C1F89000FFF7F4FE204610BDE148C06909
:10113000C0F34000704730B50324A525FFF7F6FF44
:1011400000B10025DC48DB498860DC48886000BFCE
:10115000D8480069C0F340200028F9D0D54800697C
:1011600020F020002030D34908610846006920F0B3
:101170004000403008614804FFF739FE0446CD487E
:10118000006920F02000CB490861032C14D1A52D63
:1011900012D10846006920F0100010300861C848DC
:1011A00005804FF48010FFF722FE0446C148006915
:1011B00020F01000BF490861204630BD70B50446DC
:1011C0000D460326B4F1006F16D3BE48844213D8EF
:1011D000B848006920F00100401CB649086125604C
:1011E0004FF48010FFF715FE0646B248006920F064
:1011F0000100B049086136E0B248401C844216D371
:10120000B4F1016F13D2AB48006D20F00100401C17
:10121000A849086525604FF48010FFF70CFE0646CC
:10122000A448006D20F00100A24908651BE0B4F15C
:10123000046F18D39F489030006820F00100401CD4
:101240009C499031086025604FF48010FFF705FE3F
:1012500006469848D0F8900020F001009549C1F862
:101260009000FFF755FE304670BD70B504460D4640
:101270000326B4F1006F16D39248844213D88D48E8
:10128000006920F00100401C8A49086125804FF464
:101290008010FFF7BEFD06468648006920F0010079
:1012A0008449086136E08748401C844216D3B4F173
:1012B000016F13D27F48006D20F00100401C7D4972
:1012C000086525804FF48010FFF7B5FD0646794884
:1012D000006D20F00100774908651BE0B4F1046F50
:1012E00018D374489030006820F00100401C714908
:1012F0009031086025804FF48010FFF7AEFD064660
:101300006C48D0F8900020F001006A49C1F89000C4
:10131000FFF7FEFD304670BD70B504460D4603264E
:10132000B4F1006F16D36748844213D8614800694E
:1013300020F00100401C5F49086125704FF48010C7
:10134000FFF767FD06465B48006920F00100594938
:10135000086119E05B48401C844215D3B4F1016F69
:1013600012D25448006D20F00100401C514908651C
:1013700025704FF48010FFF75EFD06464D48006D66
:1013800020F001004B490865304670BD70B5044639
:101390000D4603264A48844203D1A52D01D00320DF
:1013A00070BD4548434988604448886000BF414853
:1013B0000069C0F340200028F9D03E48006920F0C1
:1013C000100010303B49086125804FF48010FFF772
:1013D0000EFD06463748006920F0100035490861C7
:1013E0003046DDE73CB50446374903C9CDE9000185
:1013F00003252068C04320602078ADF800002088D5
:10140000C0F30720ADF802002068C0F30740ADF834
:1014100004002068000EADF80600274825498860C2
:101420002648886000BF23480069C0F34020002898
:10143000F9D02048006920F0100010301D490861E3
:10144000BDF800001E49083108804FF48010FFF7F6
:10145000CEFC0546032D09D1BDF8020018490A311A
:1014600008804FF48010FFF7C2FC0546032D09D118
:10147000BDF8040012490C3108804FF48010FFF7CA
:10148000B6FC0546032D09D1BDF806000C490E3106
:1014900008804FF48010FFF7AAFC05460548006954
:1014A00020F010000349086128463CBD0149096A43
:1014B000016070470020024023016745AB89EFCDF2
:1014C00000F8FF1FFFFF070870B5000830B504469D
:1014D0000325C948C9498860C948886000BFC74812
:1014E0000069C0F340200028F9D0C448006920F00A
:1014F00020002030C14908610846006920F0400002
:10150000403008614804FFF772FC0546BB4800699B
:1015100020F02000B9490861032D13D194B9084681
:10152000006920F0100010300861A520B54908803E
:101530008007FFF75CFC0546B048006920F010000A
:10154000AE490861284630BD30B504460325AA4897
:10155000AA498860AA48886000BFA8480069C0F30B
:1015600040200028F9D0A548006920F01000103074
:10157000A2490861A348801C04804FF48010FFF743
:1015800036FC05469D48006920F010009B49086123
:10159000284630BD9948C069C0F38700704700F005
:1015A00001022AB1954A126961F38A22934B1A61AA
:1015B00000F002022AB1914A126961F30C328F4B9A
:1015C0001A6100F004022AB18C4A126D61F38A227A
:1015D0008A4B1A6500F008022AB1884A126D61F33D
:1015E0000C32864B1A6500F010023AB1834A9032F1
:1015F000126861F38A22814BC3F8902000F0200228
:101600003AB17E4A9032126861F30C327B4BC3F8D8
:101610009020704700B501467A48006877488830C6
:101620000160FFF775FC00BD744998310860704790
:101630002DE9F04305460F4690464FF00309B5F1FA
:10164000046F38D308F0030626B1022E02D04846B4
:10165000BDE8F08369489030006820F00100401C2C
:101660006649C1F8900000240EE057F8240045F8C0
:1016700024004FF48010FFF7F0FB8146B9F1030F0F
:1016800001D04846E4E7641CB4EB980FEDD3022E7A
:1016900007D137F8240025F82400F004FFF7DDFB1C
:1016A000814656489030006820F001005349C1F847
:1016B0009000FFF72DFC4846CAE72DE9F0430746A6
:1016C0000D4614461E464FF00308A54207DAB44201
:1016D00003DD40F2FF70844201D1B54202DD0120FA
:1016E000BDE8F08348484549F031086000BF4348F1
:1016F000D8300068C0F380000028F8D0434800EAE2
:10170000C420434901EA86510843C5F30A0140EA6F
:1017100001093A48DC3007604FF48010FFF767FB9F
:1017200080463648C0F8E090B8F1030F04D14FF47A
:101730008010FFF75CFB80464046D1E730B5044699
:1017400003252E48D43004600007FFF750FB054600
:10175000032D09D12948D8300068C0F3400008B1F2
:10176000012030BD0020FCE70020FAE72348D830F4
:101770000068C0F3084070472048CC300068C0F3D0
:10178000C00008B1012070470020FCE71B48D030A2
:101790000068C0F30A0070471848D0300068C0F3F2
:1017A000CA2070471548D0300068800D704730B5AA
:1017B00005460C461148F430006865F30B000F49EC
:1017C000C1F8F4000846D0F8F40064F31730C1F80B
:1017D000F4000A48F430006820F0004000F10040B6
:1017E0000649F43108604FF08050FFF700FB0348D2
:1017F000F830006830BD000023016745002002403A
:10180000AB89EFCD00F8FF1F246D5FA300F83F0008
:101810000000C0FF10B50446B948844208D1012138
:10182000B848FEF7BDFF0021B648FEF7B9FF36E025
:10183000B54884420AD10121B248401CFEF7B0FFEE
:101840000021B048401CFEF7ABFF28E0AF488442BF
:101850000AD10121AB48801CFEF7A2FF0021A94854
:10186000801CFEF79DFF1AE0A94884420AD101219D
:10187000A448C01CFEF794FF0021A248C01CFEF73C
:101880008FFF0CE0A348844209D101219D48001D2F
:10189000FEF786FF00219B48001DFEF781FF10BD6B
:1018A00010B501214FF44020FEF77AFF00214FF4DC
:1018B0004020FEF775FF10BDF0B50A461588ABB2A3
:1018C0009579032D01D100241AE0957965B95579F0
:1018D00005F00F045579182D01D1036110E05579F9
:1018E000282D0DD143610BE0957905F00805167997
:1018F00006F004063543D67906F0030645EA0604E9
:10190000DDB2A5B1002110E001258D401D405DB183
:1019100005688F000F26BE40B543056005688E0040
:1019200004FA06F635430560491C0829ECD3FF2B61
:1019300015DD1B12002110E001258D401D405DB119
:1019400045688F000F26BE40B543456045688E0050
:1019500004FA06F635434560491C0829ECD3F0BD6E
:101960004FF6FF7101600021817101710421417105
:101970000121C17170470246002093680B408B42E1
:1019800000D000E0012070470146886880B27047AF
:1019900002460020D3680B400BB1012000E000207C
:1019A00070470146C86880B2704701617047416165
:1019B000704710B5C26821EA020302EA010443EA53
:1019C0000443036110BD0AB1016100E04161704749
:1019D000C16070474FF480320A4382618161826145
:1019E0008269826970471AB1C36B0B43C36302E01B
:1019F000C36B8B43C363704702460020464B186895
:101A000000F0800040EA0210084318607047424925
:101A1000096860F3C711404A11607047F0B50C4681
:101A20003D4F07EB1062C0F30741C0F30725C6B274
:101A3000C5F12007A7EB010C4FF0FF3707FA0CF3B5
:101A4000C5F120077F1AFB40CB408B4017689F43AE
:101A500017602CB106FA01FC176847EA0C071760FB
:101A6000F0BD10B500228B071C0F0F2303FA04F200
:101A70008B1033B1012B13D0022B20D0032B3CD180
:101A80002CE0254B9B689343234CA36023469B6823
:101A90008C07240F00FA04F423431F4CA3602DE0AD
:101AA0001D4BDB6893431C4CE3602346DB688C07CB
:101AB000240F00FA04F42343174CE3601EE0164B96
:101AC0001B699343144C236123461B698C07240F25
:101AD00000FA04F42343104C23610FE00E4B5B69C2
:101AE00093430D4C636123465B698C07240F00FA16
:101AF00004F42343084C636100E000BF00BF10BD45
:101B00000008014002000C00000C014000100140E0
:101B100000140140001801400000014000BFBFF365
:101B20004F8F5E48006800F4E0605D490843001D87
:101B30005A490860BFF34F8F00BF00BF00BFFDE7E9
:101B40002DE9F0470B4614464FF0000C00BF534AF6
:101B50001268C2F302211D4626460A46C2F1070951
:101B6000B9F1040F02D94FF0040901E0C2F10709ED
:101B7000C84602F10409B9F1070F02D24FF000097B
:101B800001E0A2F103094F464FF0010909FA08F9F3
:101B9000A9F1010909EA050909FA07F94FF0010A53
:101BA0000AFA07FAAAF1010A0AEA060A49EA0A0940
:101BB000CC4601466246002904DB15072E0E394D3E
:101BC0006E5407E015072F0E344D0C3501F00F064B
:101BD000361FAF5500BF014600290DDB00BF00BF17
:101BE00001F01F050122AA404D09AD0005F1E025D5
:101BF000C5F8002100BF00BF00BFBDE8F08710B5E9
:101C00000146084600280BDB00F01F0301229A4022
:101C1000254B440943F82420BFF34F8FBFF36F8F48
:101C200000BF10BD00BF00F007021C4B19684FF643
:101C3000FF0319401A4B0B4343EA0221174B19606B
:101C400000BF7047194A0A400243144B1B1F1A6019
:101C5000704739B1114A121D126802430F4B1B1D08
:101C60001A6006E00D4A121D126882430B4B1B1DC1
:101C70001A607047042808D14FF0E021096941F04B
:101C800004014FF0E022116107E04FF0E021096903
:101C900021F004014FF0E022116170470CED00E0EB
:101CA0000000FA0500E400E080E100E080FFFF1F93
:101CB00010B50446F848844208D10121F748FEF7E0
:101CC0006FFD0021F548FEF76BFDA3E0B4F1804FF6
:101CD00009D101210805FEF763FD00214FF48010B2
:101CE000FEF75EFD96E0EE48844208D101218012A5
:101CF000FEF756FD0021A012FEF752FD8AE0E948EA
:101D0000844208D101218012FEF74AFD0021A01271
:101D1000FEF746FD7EE0E448844208D101218012AE
:101D2000FEF73EFD0021A012FEF73AFD72E0DF480B
:101D3000844208D101218012FEF732FD0021A01259
:101D4000FEF72EFD66E0DA48844208D101218012B8
:101D5000FEF726FD0021A012FEF722FD5AE0D5482D
:101D600084420AD10121CD48801CFEF719FD0021D3
:101D7000CA48801CFEF714FD4CE0CF4884420AD1CB
:101D80000121C6480830FEF70BFD0021C34808308A
:101D9000FEF706FD3EE0C94884420AD10121BF4852
:101DA0000930FEF7FDFC0021BC480930FEF7F8FCC5
:101DB00030E0C34884420AD10121B8480A30FEF716
:101DC000EFFC0021B5480A30FEF7EAFC22E0BD48EE
:101DD000844208D101218012FEF7E2FC0021A0120A
:101DE000FEF7DEFC16E0B848844208D101218012DB
:101DF000FEF7D6FC0021A012FEF7D2FC0AE0B348A1
:101E0000844207D101218012FEF7CAFC0021A012F2
:101E1000FEF7C6FC10BD026861F300020260704765
:101E20000021017041708170C17001714171817137
:101E30007047002101704170012181700021C17043
:101E400070470021017041708170C1700171417152
:101E500081717047C1628262436923F001035B1C98
:101E600043617047026861F30922026070470268AB
:101E700061F3061202607047026B61F307020263AE
:101E80007047416270470146486A704781627047F7
:101E90000146886A70472DE9F04100260027002599
:101EA00001F108035C1C92F801C00CFA03FC1FFA54
:101EB0008CF692F802C00CFA04FC1FFA8CF7D0F8EA
:101EC00004804FF0010C0CFA04FC28EA0C08C0F85E
:101ED0000480D0F804C04CEA070CC0F804C0D0F865
:101EE00004804FF0010C0CFA03FC28EA0C08C0F83F
:101EF0000480D0F804C04CEA060CC0F804C00D46BB
:101F00004B004FF0020C0CEB41044FF0010808FAB3
:101F100004F8D0F820C02CEA080CC0F820C04FF01C
:101F2000010C0CFA03FCD0F8208028EA0C08C0F859
:101F3000208035B1022D13D0042D20D0062D3CD1A8
:101F40002CE0D0F818C02CF0030CC0F818C092F8A0
:101F50000080D0F818C068F3061CC0F818C02DE047
:101F6000D0F818C02CF4407CC0F818C092F800805B
:101F7000D0F818C068F30E3CC0F818C01EE0D0F8C6
:101F80001CC02CF0030CC0F81CC092F80080D0F8E4
:101F90001CC068F3061CC0F81CC00FE0D0F81CC0C1
:101FA0002CF4407CC0F81CC092F80080D0F81CC013
:101FB00068F30E3CC0F81CC000E000BF00BF4FF04B
:101FC000010C0CEB41034FF0030C0CEB410492F8B5
:101FD00003C00CFA03FC1FFA8CF692F804C00CFA4A
:101FE00004FC1FFA8CF74FF0010C0CFA04FCD0F83B
:101FF000208028EA0C08C0F82080D0F820C04CEAE5
:10200000070CC0F820C04FF0010C0CFA03FCD0F80C
:10201000208028EA0C08C0F82080D0F820C04CEAC4
:10202000060CC0F820C092F805C04FEA41080CFA2F
:1020300008FC1FFA8CF692F806C04FF0020808EB75
:1020400041080CFA08FC1FFA8CF7D0F820C04CEAC3
:10205000070CC0F820C0D0F820C04CEA060CC0F82D
:1020600020C0BDE8F08110B50B4633B1022B09D07A
:10207000042B0CD0062B30D12AE0846962F30614BD
:1020800084612BE0846962F30E34846126E0C469C4
:1020900062F30614C46121E0002C01400B000C0027
:1020A0000004004000080040000C00400010004008
:1020B0000014004000340140004C01400050014039
:1020C0000054014000180040001C00400020004067
:1020D000C46962F30E34C46100E000BF00BF10BDEC
:1020E000C16270470146C86A70470B4633B1022B84
:1020F00006D0042B06D0062B08D105E0426306E08B
:10210000826304E0C26302E0026400E000BF00BF3B
:10211000704710B5024600200B4633B1022B06D0A3
:10212000042B06D0062B08D105E0506B06E0906B1F
:1021300004E0D06B02E0106C00E000BF00BF10BDF7
:10214000026861F3C7120260704710B50B4633B1E5
:10215000022B09D0042B0CD0062B14D10EE084697D
:1021600062F3C30484610FE0846962F3CB24846169
:102170000AE0C46962F3C304C46105E0C46962F3A0
:10218000CB24C46100E000BF00BF10BD10B50B46FA
:1021900033B1022B09D0042B0CD0062B14D10EE046
:1021A000846962F3820484610FE0846962F38A24A3
:1021B00084610AE0C46962F38204C46105E0C46911
:1021C00062F38A24C46100E000BF00BF10BD10B5F7
:1021D0000B4633B1022B09D0042B0CD0062B14D1A3
:1021E0000EE0846962F3C71484610FE0846962F3CE
:1021F000CF3484610AE0C46962F3C714C46105E0A6
:10220000C46962F3CF34C46100E000BF00BF10BDF9
:10221000026861F3C30202607047B0F1804F02D0E0
:10222000F74A904203D1026861F38A220260704744
:10223000026861F3820202607047026861F3410242
:102240000260704730B500230B7833B1022B27D0E2
:10225000042B48D0062B7DD169E0046A24F00104E8
:1022600004624D78046A65F3410404624C786508A1
:10227000046A65F3C30404628D78846965F301041C
:102280008461CD78846965F307148461846962F39D
:1022900083048461046A24F00104641C046267E01E
:1022A000046A24F0100404624D78046A65F345144E
:1022B00004624C786508046A65F3C71404628D787B
:1022C000846965F309248461CD78846965F30F34EA
:1022D0008461846962F38B248461046A24F01004AD
:1022E0001034046244E0046A24F4807404624D787B
:1022F000046A65F3492404624C786508046A65F34E
:10230000CB2404628D78C46965F30104C461CD787F
:10231000C46965F30714C461C46962F38304C461CA
:10232000046A24F4807404F58074046220E0046A72
:1023300024F4805404624D78046A65F34D340462D9
:102340008D78C46965F30924C461CD78C46965F3E7
:102350000F3400E00BE0C461C46962F38B24C461F4
:10236000046A24F4805404F58054046200E000BF41
:1023700000BF30BD10B50B46072B28D2DFE803F0B5
:1023800004090E13181D2200046A62F3000404629B
:102390001EE0046A62F38204046219E0046A62F3D4
:1023A0000414046214E0046A62F3861404620FE009
:1023B000046A62F3082404620AE0046A62F38A246D
:1023C000046205E0046A62F30C34046200E000BFBA
:1023D00000BF10BD10B50B4633B1022B09D0042B42
:1023E0000CD0062B14D10EE0846962F307148461CB
:1023F0000FE0846962F30F3484610AE0C46962F318
:102400000714C46105E0C46962F30F34C46100E0DD
:1024100000BF00BF10BD30B500230B7813B1022BF5
:102420007ED159E0046A24F001040462046A24F0B5
:10243000100404624C784CB9046A24F0020404626B
:10244000046A24F02004203404620BE04C78012C50
:1024500008D1046A24F00204A41C0462046A24F073
:10246000200404628C78012C0BD1846924F00304CD
:10247000641C8461846924F4407404F500748461EC
:102480000DE08C78022C0AD1846924F00304A41C8A
:102490008461846924F4407404F580748461CD7887
:1024A000846965F307148461CD78846965F30F341A
:1024B0008461846962F383048461846962F38B2498
:1024C0008461046A24F00104641C0462046A24F038
:1024D0001004103404625CE0046A24F00104046215
:1024E000046A24F0100404624C784CB9046A24F0A5
:1024F00020040462046A24F00204A41C04620BE0B9
:102500004C78012C08D1046A24F0200420340462A1
:10251000046A24F0020404628C78012C0DD100E0DE
:1025200036E0846924F4407404F58074846184691D
:1025300024F00304A41C84610DE08C78022C0AD1E1
:10254000846924F4407404F500748461846924F07F
:102550000304641C8461CD78846965F30714846185
:10256000CD78846965F30F348461846962F38304F0
:102570008461846962F38B248461046A24F0010419
:10258000641C0462046A24F010041034046200E045
:1025900000BF00BF30BD426861F3C71242607047A0
:1025A00010B50B4633B1022B09D0042B0CD0062BEF
:1025B00014D10EE0846962F3830484610FE08469BE
:1025C00062F38B2484610AE0C46962F38304C4610A
:1025D00005E0C46962F38B24C46100E000BF00BF62
:1025E00010BD426861F3061242607047826861F371
:1025F000020282607047426861F3C3024260704722
:10260000000C0040426861F38202426070474268F9
:1026100061F3000242607047826861F306128260D3
:102620007047826861F3C71282607047012A03D144
:10263000C3680B43C36003E012B9C3688B43C36034
:102640007047012A03D1C3680B43C36003E012B98A
:10265000C3688B43C36070470246002013690B4078
:1026600023B1D3680B400BB1012000E0002070477C
:102670000246002013690B400BB1012000E000204E
:102680007047CA430261704742690A43426170471A
:10269000426C61F3CF3242647047816821F00701D8
:1026A0008160704710B50B46072B28D2DFE803F096
:1026B0000418091D0E221300046A62F34104046227
:1026C0001EE0046A62F34514046219E0046A62F3CE
:1026D0004924046214E0046A62F34D3404620FE09A
:1026E000046A62F3C30404620AE0046A62F3C71472
:1026F000046205E0046A62F3CB24046200E000BFD8
:1027000000BF10BD10B5846861F30D348460846827
:1027100062F3CF348460846863F30B24846010BD5B
:10272000F0B504460D4616461F463B46324629463E
:102730002046FFF7E7FFA06820F00700C01DA0605B
:10274000A06820F070007030A060F0BDF0B50446C5
:102750000D4616461F463B46324629462046FFF7A1
:10276000D1FFA06820F4804000F58040A060F0BD5B
:1027700030B5846861F302048460046A24F00104C3
:102780000462046A24F010040462046A62F34104DF
:1027900004625510046A65F3C3040462846924F07A
:1027A0000304641C8461046A63F3451404625D10CD
:1027B000046A65F3C7140462846924F4407404F560
:1027C0008074846130BD10B50B4633B1022B09D043
:1027D000042B0CD0062B14D10EE0846962F306148E
:1027E00084610FE0846962F30E3484610AE0C46995
:1027F00062F30614C46105E0C46962F30E34C46177
:1028000000E000BF00BF10BD836C61F30C23836444
:10281000836C62F30403836470478B79426C63F3C7
:102820000C3242640B78426C63F3070242644B79CA
:10283000426C63F38A2242640B79426C63F3CB22CD
:1028400042644B78426C63F34D324264CB78426C05
:1028500063F38E3242648B78426C63F309224264E4
:102860007047000010B50446F148844208D10121A8
:10287000F048FDF795FF0021EE48FDF791FF4AE093
:10288000ED48844208D101218012FDF789FF002123
:10289000A012FDF785FF3EE0E848844208D10121FF
:1028A0008012FDF77DFF0021A012FDF779FF32E0D5
:1028B000E348844208D101218012FDF771FF002115
:1028C000A012FDF76DFF26E0DE48844208D1012109
:1028D0008012FDF765FF0021A012FDF761FF1AE0ED
:1028E000D94884420AD10121D2480A30FDF758FF65
:1028F0000021D0480A30FDF753FF0CE0D348844252
:1029000009D10121CB480B30FDF74AFF0021C9480E
:102910000B30FDF745FF10BD2DE9F04385B00446AF
:102920000F46904699466846FEF7B9F8C04884427B
:1029300005D0C548844202D0C448844201D1029ED9
:1029400000E0039E06EB86004000B0FBF7F50A208E
:10295000B5FBF0F100FB1150052803D20A20B5FBAE
:10296000F0F503E00A20B5FBF0F0451CA06865F324
:102970000F00A060E06868F30C30E060206969F344
:102980000D30206105B0BDE8F08341B9C26822F482
:102990000072C260C26822F48062C2601AE001293B
:1029A0000AD1C26822F40072C260C26822F4806256
:1029B00002F58062C2600DE002290BD1C26822F4E8
:1029C000007202F50072C260C26822F4806202F5F1
:1029D0008062C2607047C26861F34D32C260704766
:1029E000C26861F3C302C2607047C26861F38202C9
:1029F000C260704710B5046961F38A2404610469F8
:102A000062F349240461046963F30824046110BD7E
:102A1000026961F3CB220261704730B5012A0BD104
:102A200000EB11431B6801F01F050124AC40234358
:102A300000EB114423600AE000EB11431B6801F036
:102A40001F050124AC40A34300EB1144236030BDBB
:102A5000426961F3C71242617047426961F38612AD
:102A600042617047026961F3030202617047C26804
:102A700061F3CB22C2607047C26861F34102C26059
:102A80007047026961F3451202617047026961F3A0
:102A90008E3202617047C1F30802426070470146FE
:102AA000486880B27047C16821F00101491CC160CB
:102AB0007047826961F30F2282617047826961F316
:102AC000070282617047426961F3451242617047B3
:102AD000426961F3041242617047426961F3C302C3
:102AE00042617047426961F3410242617047426945
:102AF00061F382024261704741B9426922F48072F7
:102B00004261426922F40072426127E001290AD140
:102B1000426922F4807202F580724261426922F4B5
:102B2000007242611AE002290AD1426922F48072DD
:102B30004261426922F4007202F5007242610DE0C6
:102B400003290BD1426922F4807202F5807242613E
:102B5000426922F4007202F5007242617047024637
:102B60001068084008B1012070470020FCE70246C9
:102B70000023202927D00CDC042939D004DC0129CA
:102B80003BD002293DD134E0082920D0102938D18A
:102B90002AE0402913D080290DD0B1F5807F06D0DE
:102BA000B1F5007F2DD15069C0F380232BE010696F
:102BB000C0F3801327E0D068C0F3C01323E0D068CF
:102BC000C0F380131FE0D068C0F340131BE0D0684F
:102BD000C0F3401018B9506900F0010008B101209D
:102BE00000E0002003460EE0D068C0F300130AE0C6
:102BF00000BF506900F0010305E0D068C0F3002376
:102C000001E0002300BF00BF012B01D0002070476E
:102C10001068084008B10120F9E70020F7E701F04B
:102C20001F0212B10268426801E0CA4302607047A5
:102C3000003801400E000C000044004000480040F5
:102C4000004C004000500040006001400064014022
:102C500029480068704730B5284800684FF47A72F8
:102C6000B0FBF2F1481EB0F1807F00D31BE0481E9C
:102C70004FF0E022506150170F22002804DB1307A9
:102C80001C0E1F4B1C5406E013071D0E1D4B00F0BD
:102C90000F04241F1D5500BF00204FF0E02290615B
:102CA0000720106100BF30BD134A116800BF124AEF
:102CB0001268521A8242FAD3704730B50346002593
:102CC00000244FF4FA7093FBF0F0C5B24FF4FA70A1
:102CD00093FBF0F100FB113084B205E04FF4FA7081
:102CE000FFF7E2FF681EC5B2002DF7D114B12046F0
:102CF000FFF7DAFF30BD00000800002000000020D0
:102D000000E400E018ED00E01CB504460121854810
:102D1000FDF727FD012183480C30FDF722FD6846B1
:102D2000FEF71EFE08208DF8060000208DF8040036
:102D300004208DF8050001208DF807004002009066
:102D400069467948FEF7B8FD00208DF8060004209A
:102D50008DF805000002009069467348FEF7ACFD4F
:102D600000231A4621467148FFF7D6FD01216F481E
:102D7000FFF736FE01216D48FFF737FE01216B4852
:102D8000FFF729FE01226A496848FFF746FE022242
:102D900000212520FEF7D4FE1CBD1CB504460121F0
:102DA0006048FDF7DEFC01216248FDF7DAFC684669
:102DB000FEF7D6FD08208DF8060000208DF80400EF
:102DC00004208DF8050001208DF8070004200090F4
:102DD00069465548FEF770FD00208DF80600042076
:102DE0008DF805000820009069464F48FEF764FD05
:102DF00000231A4621465048FFF78EFD01214E4818
:102E0000FFF7EEFD01214C48FFF7EFFD01214A4895
:102E1000FFF7E1FD1CBD1CB5044601214148401CE3
:102E2000FDF79FFC01214348401CFDF79AFC6846D2
:102E3000FEF796FD08208DF8060000208DF80400AE
:102E400004208DF8050001208DF807008002009015
:102E500069463A48FEF730FD00208DF8060018203C
:102E60008DF805004FF40060009069463348FEF786
:102E700023FD00231A4621463148FFF74DFD01216D
:102E80002F48FFF7ADFD01212D48FFF7AEFD0121D1
:102E90002B48FFF7A0FD012225492948FFF7BDFD7A
:102EA000002211462720FEF74BFE1CBD2DE9F04104
:102EB00007460C46154600260DE014F8011B38465F
:102EC000FFF7E9FD00BF40213846FFF748FE002824
:102ED000F9D0701C86B2AE42EFDBBDE8F0810FB4D2
:102EE00038B50546174C06A800904FF4806120467F
:102EF000009B059A04F030FD002000900BE014F8D0
:102F0000011B2846FFF7C7FD00BF40212846FFF7F9
:102F100026FE0028F9D020780028F0D138BC5DF8D2
:102F200014FB0000020018000008014000380140B6
:102F300005000C0011001C0000440040000C014082
:102F4000004800405C00002070B5002491E0092C8E
:102F500018D2DFE804F00507090B0D0F1113150057
:102F6000FC4D10E0FC4D0EE0FC4D0CE0FC4D0AE089
:102F7000FC4D08E0FC4D06E0FC4D04E0FC4D02E099
:102F8000FC4D00E000BF00BF284604F0B6F904EB9A
:102F90004401F94A02F82100A81C04F0AEF904EB40
:102FA0004401F54A02EB81014870281D04F0A5F99F
:102FB00004EB4401F04A02EB81018870A81D04F083
:102FC0009CF904EB4401EC4A02EB8101C87005F165
:102FD000080004F092F904EB4401E74A02EB810196
:102FE000087105F10A0004F088F904EB4401E24A93
:102FF00002EB8101487105F10C0004F07EF904EB4D
:103000004401DD4A02EB8101887105F10E0004F0F4
:1030100074F904EB4401D84A02EB8101C87105F14F
:10302000100004F06AF904EB4401D34A02EB810179
:10303000087205F1120004F060F904EB4401CE4A75
:1030400002EB8101487205F1140004F056F904EB1B
:103050004401C94A02EB8101887205F1160004F0AF
:103060004CF904EB4401C44A02EB8101C872601CB4
:10307000C4B2082C7FF76BAF70BD10B5FFF764FFCB
:103080000024FF20BD49087000BF70E0BC480078F4
:1030900004EB4401B84A12F82110884265D1B848BF
:1030A000407804EB440102EB8101497888425CD10D
:1030B000B348807804EB440102EB810189788842AF
:1030C00053D1AF48C07804EB440102EB8101C978C9
:1030D00088424AD1AA48007904EB440102EB8101FD
:1030E0000979884241D1A648407904EB440102EBBA
:1030F00081014979884238D1A148807904EB4401A3
:1031000002EB8101897988422FD19D48C07904EB77
:10311000440102EB8101C979884226D19848007A9E
:1031200004EB440102EB8101097A88421DD19448E5
:10313000407A04EB440102EB8101497A884214D1C0
:103140008F48807A04EB440102EB8101897A88423E
:103150000BD18B48C07A04EB440102EB8101C97AA0
:10316000884202D18548047010BD601CC4B2082C8E
:103170008CDD002458E004EB44007F4911F8200066
:10318000FF284FD104EB440001EB80004078FF287A
:1031900048D104EB440001EB80008078FF2841D146
:1031A00004EB440001EB8000C078FF283AD104EB27
:1031B000440001EB80000079FF2833D104EB440088
:1031C00001EB80004079FF282CD104EB440001EB97
:1031D00080008079FF2825D104EB440001EB8000BA
:1031E000C079FF281ED104EB440001EB8000007A77
:1031F000FF2817D104EB440001EB8000407AFF2840
:1032000010D104EB440001EB8000807AFF2809D143
:1032100004EB440001EB8000C07AFF2802D157483C
:103220000470A1E7601CC4B2082CA4DD0920534936
:10323000087000BF98E710B55248006840F470006D
:10324000504908600320FEF7EDFCFFF704FD4FF442
:10325000E130FFF759FD4FF4E130FFF79EFD4FF4E9
:10326000E130FFF7D8FD03F02FFF03F054FEFFF726
:103270006BFE10BD92B00024FF2278213E4804F07E
:10328000BCFEFFF7D8FF40A142A004F04CF801F0CB
:1032900074FD03F018FD41A20121084603F05FFD13
:1032A00042A20121022003F05AFD00200F9010904D
:1032B000119041A00F904BA0109003E04FF4FA70D2
:1032C000FFF7F2FC0FA801F076FC0028F6D147A228
:1032D0000121032003F043FD48A20121042003F053
:1032E0003EFD4FF4FA70FFF7DFFC03F0ECFC47A261
:1032F0000121084603F033FD2FA00F9039A0109054
:1033000001208DF8440006E00FA801F054FC4FF4B2
:10331000FA70FFF7C9FC00F0BFFA0028F4D140A210
:103320000121032003F01BFD00F09CFD03F0CBFC0A
:1033300014E2FFF78DFC3E490968401A42F2107111
:10334000884206D301F0BFFC002873D103F0BBFC18
:1033500071E09DE000D0010800D8010800E00108FC
:1033600000E8010800F0010800F801080000020868
:1033700000080208001002088E0400200F00002040
:103380004C0D002088ED00E070617373776F7264FC
:10339000000000005353494400000000436F6E6E6C
:1033A000656374204D515454730000005365727668
:1033B00065722E2E2E00000041542B434950535469
:1033C0004152543D22544350222C223139322E3165
:1033D00036382E3139392E313030222C31383833CD
:1033E0000D0A0000434F4E4E45435400436F6E6E2E
:1033F000656374204D51545420000000536572766B
:103400006572205375636365737300004465766964
:103410006365206C6F67696E202E2E2E0000000001
:103420006C6F67696E2066696E69736800000000E2
:103430002000002028E0D3A20121084603F08FFCE1
:10344000D4A20121022003F08AFC01F0DFFBD5A207
:103450000121032003F083FC03E04FF4FA70FFF72F
:1034600023FC00F019FA0028F7D100F0FBFC03F070
:103470002AFCD0A20121084603F071FC4FF47A70B7
:10348000FFF712FC03F01FFCFFF7E2FBCD490860D9
:10349000CD480078002875D0CC4A07CA0CAB07C3CA
:1034A00003230CAA0121084603F0C8FDBCA2072192
:1034B000012003F054FC04F0F8F804F06CF8FFF776
:1034C00043FD04F03CF9012870D104F04DF90128C6
:1034D000FAD1BF48C07ABE49897ABD4A527ABC4BFC
:1034E0001B7ACDE90632CDE90810B948C079B84950
:1034F0008979B74A5279B64B1B79CDE90232CDE9C9
:103500000410B348C078B2498978CDE90010B048BA
:1035100043780278AFA1BC4804F038FAAB490C31CB
:1035200003C9CDE90A0102230AAA0121184603F0C2
:1035300085FDB6A20521022003F011FCB24A01214B
:10354000032003F00CFC0025FFF797FDB04800783E
:10355000082818DD9D4B14330FCBCDE90823CDE9A6
:103560000601042306AA0121184603F067FD032083
:10357000A84908700420A849087001210007FEF737
:103580004AFC5DE05EE0A2480078092819D2DFE835
:1035900000F00507090B0E10121416009F4D11E0E4
:1035A0009F4D0FE09F4D0DE09F4D0BE049E09F4D7B
:1035B00008E09F4D06E09F4D04E09F4D02E09F4DC7
:1035C00000E000BF00BF01209D4908700846008947
:1035D0008F490A780121914008439949088108469A
:1035E000807A401C88727A49284603F028FEFFF74B
:1035F000ABFC03208749087004208749087001212B
:103600000007FEF708FC8F4890F900008049097810
:10361000C1EB01118C4A02EBC10148677C4800787C
:103620007B490978C1EB011102F83100784909782A
:10363000C1EB011102EBC101481C734904F0CCFB42
:1036400000BF0DE0614B24330FCBCDE90D23CDE955
:103650000B0104230BAA0121084603F0EFFC00BF75
:103660007A48007860B16C4801786A48007803F0C5
:10367000FCFC0020684908706649087073490870AE
:1036800073480068401CA0B1714872A10268764876
:10369000FFF725FC6E480068604901EBC02528460D
:1036A00003F031FEFFF750FC4FF0FF30684908602F
:1036B00000BFFFF7CDFA62494968401A47F230511E
:1036C00088420DD35E48007850B900F0F0FBFFF758
:1036D000BFFA5B49486065480068401C6349086060
:1036E000FFF7B6FA62490968401A6249884205D371
:1036F00000F097FCFFF7ACFA5D4908605B48006892
:10370000032823DB5CA15848FFF7E9FB01F035FBF8
:10371000AFF25C300F90AFF23430109000208DF893
:10372000440006E00FA801F046FA4FF4FA70FFF7E4
:10373000BBFA00F0B1F80028F4D153A14A48FFF7D2
:10374000CEFB00204949086003F0BDFA002001F0DB
:10375000EDFA044614B1204600F0BCFBE9E510B5D3
:1037600001218807FEF778FF01280AD13749087040
:1037700001218007FEF785FF00214FF08040FEF712
:103780004AFB10BD57694669204C6F737421202095
:10379000202020005265636F6E6E656374696E67EA
:1037A0002E2E2E004D515454205265636F6E6E655F
:1037B00063742000576946692026204D51545420D7
:1037C0004F4B2000200000201C00002078B500088E
:1037D0004C0D0020253032582530325825303258D3
:1037E000253032582530325825303258253032585D
:1037F000253032582530325825303258253032584D
:1038000025303258200000005C0400203A000000FF
:103810000F0000200C0000200D00002000D0010847
:1038200000D8010800E0010800E8010800F00108E4
:1038300000F8010800000208000802080010020851
:103840004009002049000020080500200E0000204B
:10385000100000205265777269746520464C415310
:103860004825640D0A0000000044004014000020B8
:1038700018000020E0930400446973636F6E6E6566
:1038800063740D0A00000000436F6E6E6563742060
:10389000616761696E0D0A0030B5B3B000202F90EA
:1038A00030903190329001252FA800210291039190
:1038B000CDE90410084601213C23DDA2CDE900102A
:1038C00007A9DCA000F026FD002842D1309A91B271
:1038D0002F9801F00AFAFA2001F028FA0446002C89
:1038E00033D0204600F0E8FC02282ED1204600F01C
:1038F00076FE062823D2DFE800F003090E13181D18
:10390000CDA1D448FFF7EBFA00251DE0D2A1D148A4
:10391000FFF7E5FA18E0DDA1CE48FFF7E0FA13E083
:10392000E8A1CC48FFF7DBFA0EE0F549C948FFF7FC
:10393000D6FA09E0F349C748FFF7D1FA04E0F2A14B
:10394000C448FFF7CCFA00BF00BF2FA800F06CFC02
:1039500003E0F9A1BF48FFF7C2FA284633B030BDF3
:1039600030B58DB00546302101A804F070FBFB484E
:10397000827AFBA101A804F009F801A9284604F005
:10398000B9FAF648807A00287EDDF44800890028DC
:103990007AD0002407E1F14800890121A1400840C4
:1039A00000287DD0ED48807A012879DD302101A8FA
:1039B00004F04DFB621CF2A101A803F0E7FF01A98E
:1039C000284604F097FA302101A804F040FB621C5D
:1039D000F1A101A803F0DAFF01A9284604F08AFA50
:1039E000C4EB0410EF4901EBC000406F88B13021F7
:1039F00001A804F02CFBC4EB0410EA4901EBC00061
:103A0000E9A1426F01A803F0C1FF01A9284604F013
:103A100071FA302101A804F01AFBC4EB0410E1494B
:103A200001EBC00000F14102E2A101A803F0AEFFEA
:103A300001A9284604F05EFA302101A804F007FB32
:103A4000C4EB0410D74901EBC00000F15102DDA125
:103A500001A803F09BFF01A9284604F04BFA30218E
:103A600001A804F0F4FAC4EB0410CE4901EBC00045
:103A7000421CD8A101A803F089FF01A9284604F03F
:103A800039FAB648008901E090E009E00121A1403F
:103A90008843B24908810846807A401E887280E0D7
:103AA000AE4801890120A0400140002979D0AB48EF
:103AB000807A012875D1302101A804F0C8FA621C6F
:103AC000AFA101A803F062FF01A9284604F012FA91
:103AD000302101A804F0BBFA621CAFA101A803F0D9
:103AE00055FF01A9284604F005FAC4EB0410AD49BE
:103AF00001EBC000406F88B1302101A804F0A7FAA3
:103B0000C4EB0410A74901EBC000A7A1426F01A8B4
:103B100003F03CFF01A9284604F0ECF9302101A88C
:103B200004F095FAC4EB04109E4901EBC00000F1CB
:103B30004102A0A101A803F029FF01A9284604F031
:103B4000D9F9302101A804F082FAC4EB0410954998
:103B500001EBC00000F151029AA101A803F016FF89
:103B600001A9284604F0C6F9302101A804F06FFA33
:103B7000C4EB04108B4901EBC000421C99A101A8C1
:103B800003F004FF01A9284604F0B4F97348018941
:103B90000120A040814371480181807A401E6F4915
:103BA0008872601CC4B2092CFFF6F5AE8CA12846C1
:103BB00004F0A0F92A468FA12648FFF790F928467D
:103BC00004F02EF90DB030BD30B5ADF5057D002007
:103BD0008190829083908490002400254FF400719E
:103BE00001A804F034FA01A8FFF7BAFE0446002C3D
:103BF0001BD081A8002322B20DA100900DA000F0DF
:103C0000D9FD98B907E001A8415D829A501C8290C5
:103C1000819881546D1CA542F5D3829A91B2819806
:103C200001F063F881A800F0FFFAEDE0E8E00000A1
:103C30007400000039000000546970733A09EFBF46
:103C4000BDEFBFBDEFBFBDD3B3C9B9EFBFBD0D0A57
:103C500000000000004400405741524E3A09EFBFB7
:103C6000BDEFBFBDEFBFBDEFBFBDCAA7EFBFBDDC9E
:103C7000A3EFBFBDD0ADEFBFBDEFBFBDEFBFBDEF89
:103C8000BFBDEFBFBD5C720A000000005741524E3D
:103C90003A09EFBFBDEFBFBDEFBFBDEFBFBDCAA7C4
:103CA000EFBFBDDCA3EFBFBDEFBFBDC7B7EFBFBD6B
:103CB000EFBFBDEFBFBD636C69656E7469640D0ACB
:103CC000000000005741524E3A09EFBFBDEFBFBDA3
:103CD000EFBFBDEFBFBDCAA7EFBFBDDCA3EFBFBD48
:103CE000EFBFBDEFBFBDEFBFBDEFBFBDEFBFBDEFCE
:103CF000BFBDCAA7EFBFBDEFBFBD0D0A00000000EA
:103D000044C80008F4C700084552523A09EFBFBD45
:103D1000EFBFBDEFBFBDEFBFBDCAA7EFBFBDDCA307
:103D2000EFBFBDCEB4D6AAEFBFBDEFBFBDEFBFBDE5
:103D3000EFBFBD0D0A0000005741524E3A094D51E8
:103D400054545F5061636B6574436F6E6E6563744A
:103D5000204661696C65640D0A000000400900207E
:103D60007B2273656E645F6E756D626572223A25A3
:103D7000642C22706172616D73223A7B0000000036
:103D8000226F626A6563742564223A7B2276616CD5
:103D90007565223A7B000000226964223A25642C72
:103DA00000000000080500202252535349223A2502
:103DB000642C0000226E616D65223A222573222C4C
:103DC00000000000226E6F7465223A222573222CB7
:103DD000000000002263617264223A222573222CC3
:103DE0007D7D00002263617264223A222573227D68
:103DF0007D0000006275663A25730D0A0000000020
:103E00009CA1A448FFF76BF80DF5057D30BD70B59A
:103E100088B005460C460020049005900690079057
:103E200023462A469CA19B48FFF759F8204603F0F9
:103E3000F7FF064604A80121002200923346CDE98F
:103E400001210390224629460A2000F0D7FB38B909
:103E5000059A91B2049800F048FF04A800F0E4F934
:103E600008B070BD00B595B000201190129013906D
:103E7000149003A8029090A2382103F09DFD03AA9C
:103E800091A18448FFF72BF811A8012302AA002171
:103E90000090142000F0AEFC38B9129A91B211983B
:103EA00000F023FF11A800F0BFF915B000BD1FB549
:103EB00000200090019002900390684600F044FEBC
:103EC00038B9019A91B2009800F00FFF684600F0EF
:103ED000ABF91FBD2DE9F04F89B080460020089056
:103EE000079006900590049081460027404600F018
:103EF000E3F98146B9F1030F09D0B9F1040F5FD09E
:103F0000B9F1090F69D0B9F10D0F7DD174E0744892
:103F100004A905AA08ABCDE90021029006AA07A9C9
:103F2000404600F009FD0746002F48D1089801F0EF
:103F300013FF82466BA1504602F014FB83466BA12F
:103F4000584602F00FFB064686B16AA1304602F0E1
:103F500009FB0546E868032808D16869401E6649E0
:103F6000086066A14B486A69FEF7B9FFFEF770FE6C
:103F70006749486000F000FE66A1584602F0F2FA78
:103F80000446C4B1E068032815D164490978606922
:103F9000884207D0012062490870624908700420F5
:103FA00061490870207D5D490870084602785FA16C
:103FB0003848FEF794FF504601F07EF827E000BF36
:103FC000404600F0B2FD012806D100205A490860A1
:103FD0005AA13048FEF783FF19E0404600F092FCFA
:103FE00028B95EA12B48FEF77AFF04E00CE062A13D
:103FF0002848FEF774FF0AE000204F49086065A1D9
:104000002448FEF76CFF02E04FF0FF3700BF00BF0F
:1040100000F0B2FD781C10B909B0BDE8F08F00BF08
:10402000FAE770B588B000200490059006900790DC
:104030005EA562A4204603F0F3FE064604A8012113
:10404000002200923346CDE9012103902246294601
:104050000A2000F0D3FA58B9059A91B2049800F0FA
:1040600044FE04A800F0E0F855A10A48FEF737FF27
:1040700008B070BD5741524E3A094544505F4E65F5
:1040800077427566666572204661696C65640D0AE3
:1040900000000000004400405075626C69736820A5
:1040A000546F7069633A2025732C204D73673A2052
:1040B00025730D0A0000000061737365742F636F30
:1040C0006D6D616E640000005375627363726962A6
:1040D0006520546F7069633A2025730D0A00000053
:1040E00026000020706172616D73000064656C656C
:1040F00074650000696400001000002064656C6550
:10410000746520617373657425640D0A00000000F6
:104110004009002073656172636800001C00002084
:104120000E0000200C0000200D000020736561725D
:1041300063683A25640D0A00140000205469707306
:104140003A094D515454205075626C69736820537C
:10415000656E64204F4B0D0A0000000054697073B7
:104160003A094D5154542053756273637269626504
:10417000204F4B0D0A000000546970733A094D51ED
:10418000545420537562736372696265204572727C
:104190000D0A0000546970733A094D51545420704F
:1041A000696E67204F4B0D0A000000006173736554
:1041B000742F6B656570616C697665007B7D0000AE
:1041C00053656E74204B656570416C6976650A00B5
:1041D00070B504460E460025206898B9012020736A
:1041E000304603F055FB20602068E0B1002060609D
:1041F000A66003E00020216848556D1CA068A84215
:10420000F8D810E00220207303E000202168485510
:104210006D1CA068A842F8D800206060A068B04279
:1042200001D20020206070BD10B50446207B01281B
:1042300002D1206803F05BFB002020606060A0607A
:10424000207310BD0246002301230DE002F07F0021
:104250000870D2092AB1087840F080000870491C23
:1042600001E0184670475B1C042BEFDD4FF0FF3078
:10427000F8E7F0B504460D462646012300201060FD
:10428000002114E0775C07F07F07106807FB03004C
:104290001060705C00F0800008B9481CF0BDDB01C4
:1042A000B3F5001F02D36FF00100F7E7491CA942E4
:1042B000E8DB4FF0FF30F1E7F8B50446FF27207840
:1042C0000511012D01DB0E2D01DD3846F8BD032D52
:1042D0001DD1002000906A460421601CFFF7C9FF31
:1042E0002044461C0098022803D3207800F00100E7
:1042F00008B1FF20EAE77078317840EA0120801C9D
:104300000099884201D9FF20E0E7032700E02F460B
:104310003846DBE72DE9FF4F83B082468B46914656
:10432000159C0025002002900F270190484603F0BD
:1043300077FD0FFA80F8B9F1000F03D1012007B023
:10434000BDE8F08F08F10200384487B2109808B138
:1043500045F00205129878B145F00405129803F073
:104360005FFDC0B20290139803F05AFD0146029817
:10437000001D0844384487B2119820B1012804D0A8
:10438000022808D104E000BF07E045F00C0504E076
:1043900045F0140501E00220D1E700BF149808B1F0
:1043A00045F02405BAF1000F02D0BBF1000F01D196
:1043B0000320C4E745F0C005504603F031FD064632
:1043C000584603F02DFD3044001D384487B239466D
:1043D0002046FFF7FDFE206808B90420AFE7394604
:1043E000206803F012FE10216268501C6060206893
:1043F0008154D4E90023D118781FFFF723FF00B2BE
:1044000001900198002804DA2046FFF70DFF0520EF
:1044100095E7616801980844606000216268501C5B
:1044200060602068815404216268501C60602068CC
:1044300081544D216268501C606020688154512174
:104440006268501C60602068815454216268501C6E
:104450006060206881546268501C606020688154EC
:1044600004216268501C6060206881546168481CA7
:104470006060206845540698010A6268501C6060BC
:10448000206881540698C1B26268501C6060206840
:104490008154C8F307216268501C60602068815411
:1044A0006268501C6060206800F80280D4E9001245
:1044B00088184246494603F03FFC6068404460600B
:1044C00005F00400B8B30026139808B9FEA01390B5
:1044D000129803F0A5FC86B2310A6268501C606035
:1044E000206881546268501C606020688654D4E95A
:1044F000001288183246129903F01EFC606830449E
:104500006060139803F08CFC86B2310A6268501C1C
:104510006060206881546268501C60602068865426
:10452000D4E9001288183246139903F005FC60683C
:104530003044606000BF05F08000C8B1504603F011
:104540006FFC86B2310A6268501C6060206881543A
:104550006268501C606020688654D4E90012881894
:104560003246514603F0E8FB60683044606000BFAB
:1045700005F04000C8B1584603F052FC86B2310A3B
:104580006268501C6060206881546268501C6060E2
:1045900020688654D4E9001288183246594603F040
:1045A000CBFB60683044606000BF0020C7E610B5F8
:1045B000044602212046FFF70BFE206808B90120BF
:1045C00010BDE0216268501C6060206881540021A9
:1045D0006268501C6060206881540020F0E701464A
:1045E0004878022801D001207047887810B1887877
:1045F000012801D1C878F7E7FF20F5E72DE9FF4F43
:1046000083B0834617469946139C00250026002058
:10461000029001908046BBF1000F03D1012007B04A
:10462000BDE8F08F00260AE00498805D232803D0BF
:104630000498805D2B2801D10220F0E7761C0498B5
:10464000805D0028F0D148F03008119808B148F09A
:10465000010806EB0900851C109820B1012804D040
:1046600002280AD105E000BF09E048F00208AD1CAD
:1046700005E048F00408AD1C01E00320CFE700BFCF
:104680008FB33878022821D14FF0000A00BF50467E
:104690000AF1010A385C7D28F9D1AAF1030A0AF16E
:1046A000070002900298A9EB000AE81CA0EB0A019F
:1046B0002046FFF78DFD206808B90420AFE7EA1C0B
:1046C000A2EB0A01206803F0A0FC19E0691D204656
:1046D000FFF77EFD206808B90420A0E7691D206867
:1046E00003F093FC0CE0FFE7691D2046FFF770FD27
:1046F000206808B9042092E7691D206803F085FC52
:104700006168481C6060206800F80180D4E90002FC
:1047100081182846FFF796FD01900198002804DAD9
:104720002046FFF781FD052079E76168019808447C
:104730006060C6F307216268501C60602068815485
:104740006268501C606020688654D4E900128818A2
:104750003246049903F0F0FA6068304460601098C3
:1047600060B14FEA1B216268501C60602068815470
:104770006268501C6060206800F802B0C7B13878E9
:1047800002280BD1D4E9001288183946029A03F0A6
:10479000BDFB616802980844606009E0D4E900123A
:1047A00088184A46394603F0B1FB606848446060A7
:1047B000002034E72DE9F04190B006460F4614463C
:1047C0009846169D41A2302104A803F0F5F8012077
:1047D0000021CDE9000123460A4604A9CDE90205DE
:1047E0000A20FFF70BFF18B1012010B0BDE8F081DF
:1047F0000020FAE72DE9FF5F8046174699460E9C98
:104800000026B246B3460025B8F1000F03D10120BF
:1048100004B0BDE8F09F0BE057F8250008B902206E
:10482000F6E757F8250003F0FBFA0644681CC5B20A
:104830004D45F1DB09EB4900801C00EB060A0AF14B
:1048400005012046FFF7C4FC206808B90320DFE714
:1048500082216268501C606020688154D4E90002A3
:1048600081185046FFF7EEFC0FFA80FBBBF1000FFA
:1048700004DA2046FFF7D8FC0420C9E760685844F2
:1048800060604FEA18216268501C606020688154A3
:104890006268501C6060206800F8028000252DE0EE
:1048A00057F8250003F0BCFA0646C6F307216268F4
:1048B000501C6060206881546268501C60602068F1
:1048C0008654D4E9002307E000000000617373659B
:1048D000742F706F73740000D01857F8251032468B
:1048E00003F02AFA6068304460600198C1B26268DF
:1048F000501C606020688154681CC5B24D45CFDBF8
:10490000002085E70146FF208A78A2B9CA78142AD8
:1049100011D10A7932B1012A05D0022A04D0802AA5
:1049200006D103E000BF00BF002003E0012001E04A
:10493000022000BF00BF70472DE9FC5F81460D4695
:1049400014461E46DDE90C7B99F8000000F00F0AC2
:10495000002001900AF008000090CAF341008BF893
:10496000000001AA042109F10100FFF782FC48447C
:1049700000F101080198022802D30AF0010010B1E9
:10498000FF20BDE8FC9F98F8010098F8001040EA6D
:10499000012020802088801C0199884201D9FF20B5
:1049A000EFE79BF8000020B101283BD0022876D128
:1049B00039E0009808B1FF20E3E72188481C02F0A5
:1049C00067FF2860286808B9FF20DAE72288511CB1
:1049D000286803F01AFB228808F10201286803F016
:1049E00095FA0198801E2188401A38803988481C21
:1049F00002F04EFF3060306820B9286802F077FF7F
:104A0000FF20BEE73A88511C306803F0FEFA3A886E
:104A1000B4F800C008F102030CEB0301306803F0A6
:104A200075FA4FE000BF2088801C0199884201D9A7
:104A3000FF20A6E72088C01C18F800102088801CE2
:104A400018F8000041EA00210E9801800E9808B97C
:104A5000FF2096E72188481C02F01AFF286028688A
:104A600008B9FF208DE72288511C286803F0CDFA91
:104A7000228808F10201286803F048FA0198001F13
:104A80002188401A38803988481C02F001FF3060C4
:104A9000306828B9286802F02AFFFF2071E70FE08C
:104AA0003A88511C306803F0B0FA3A88B4F800C074
:104AB00008F104030CEB0301306803F027FA01E06E
:104AC000FF205EE700BF2B21284603F02BF920B919
:104AD0002321284603F026F908B1FF2051E70020E2
:104AE0004FE770B505460C4604212046FFF770FBE2
:104AF000206808B9012070BD40216268501C6060C8
:104B00002068815402216268501C606020688154D2
:104B100029126268501C6060206881546268501CD1
:104B20006060206885540020E5E701464878022847
:104B300001D000207047887820B9C8780A2801D1B0
:104B40000120F7E70020F5E710B5044602212046D2
:104B5000FFF73EFB206808B9012010BDC021626844
:104B6000501C60602068815400216268501C6060A5
:104B7000206881540020F0E710B54FF40071BD4863
:104B800003F043FA0020BC49088010BDBA480088F1
:104B900008B901207047B8480088B8490988884298
:104BA00003D10020B4490880F4E7B3480088B34932
:104BB00008800120EEE770B50446C825206803F0A0
:104BC0002FF986B23246AE482168FEF76FF916E03B
:104BD000FFF7DCFF80B9207A012804D1A54AA9A1FA
:104BE000AA48FEF77CF9A348616803F0B7F818B14A
:104BF000FFF7C2FF002070BD0A20FEF755F8281EFF
:104C0000A5F10101CDB2E3D10120F4E710B5B6B0B2
:104C100024212DA803F01BFA242124A803F017FA5D
:104C20000024212224A92DA802F0BAFB90B902F099
:104C30004AF897A20121084602F091F898A20121B2
:104C4000022002F08CF89AA20121032002F087F8DA
:104C500000BFFEE724AB2DAA98A104A802F096FE9F
:104C600004A801909BA0029001208DF80C009BA24B
:104C70000121042002F073F808E04FF4FA60FEF717
:104C800013F89BA20121042002F069F801A8FFF7A4
:104C900092FF20B12046611CCCB20A28EDDB0A2C21
:104CA00006DB97A20121042002F059F800BFFEE7BD
:104CB00097A20121042002F052F84FF4FA70FDF798
:104CC000F3FF36B010BD0EB595A0009097A00190EF
:104CD00000208DF80800FFF74FFF6846FFF76BFFD5
:104CE00008B901200EBD0020FCE730B58BB00446AA
:104CF0000D46FFF741FF2A468FA103A802F046FEAA
:104D0000002000900190029003A800908EA00190D6
:104D100000208DF808006846FFF74DFF20B92A46AD
:104D200021465748FEF7C2F80BB030BD70B50546B6
:104D3000002400BFFFF72AFFA8B984A14D4803F063
:104D40000DF8044624B983A15048FEF7C8F80AE0DC
:104D50003A21204602F0E6FF044614B1641C2046C6
:104D600070BD0020FCE73220FDF79EFF281EA5F154
:104D700001018DB2DED100BFF2E70EB50020009038
:104D800001900290FFF7F8FE77A14048FEF7A7F8E0
:104D900001F099FF76A20121084601F0E0FF76A01C
:104DA000009077A0019003E04FF4FA70FDF77CFFCC
:104DB0006846FFF700FF0028F6D172A20121022009
:104DC00001F0CDFF72A000906DA0019003E04FF4C0
:104DD000FA70FDF769FF6846FFF7EDFE0028F6D18F
:104DE0006FA20121032001F0BAFF71A0009064A01E
:104DF000019003E04FF4FA70FDF756FF6846FFF7A5
:104E0000DAFE0028F6D16EA20121042001F0A7FFEE
:104E1000FFF7FCFE6DA11D48FEF761F801F053FF9E
:104E200070A20121084601F09AFF4FF4FA70FDF7D5
:104E30003BFF0EBD10B520211148FDF798FEB8B11B
:104E40000D480088B0F5007F02D300200A49088091
:104E50000B48FDF724FEC1B2074802880088401CB9
:104E6000054B18800348815420210548FDF7D7FEE3
:104E700010BD00004C090020280000202A0000205E
:104E80000048004025730D0A000000000044004067
:104E90004E6F205769466920636F6E66696721000F
:104EA000506C6561736520736574207669610000DC
:104EB000555342206F7220554152540041542B43A8
:104EC000574A41503D222573222C222573220D0A78
:104ED00000000000474F542049500000436F6E6EA1
:104EE000656374696E672057694669200000000099
:104EF00052657472792E2E2E202020202020200032
:104F000057694669204661696C656421202020004C
:104F10005769466920436F6E6E656374656420004F
:104F200041542B43574A41503F0D0A002B43574AE7
:104F300041503A220000000041542B434950534550
:104F40004E443D25640D0A003E0000004950442CAB
:104F5000000000002249504422206E6F7420666FCA
:104F6000756E640D0A000000312E2041540D0A00B8
:104F7000312E41542E2E2E0041540D0A0000000007
:104F80004F4B0000322E43574D4F44452E2E2E00DE
:104F900041542B43574D4F44453D310D0A0000000D
:104FA000332E41542B4357444843502E2E2E00009D
:104FB00041542B4357444843503D312C310D0A0096
:104FC000342E43574A41502E2E2E0000352E2045B8
:104FD00053503832363620496E6974204F4B0D0AD3
:104FE000000000004553503832363620496E69744F
:104FF000204F4B00FE480068704770B504460D46D0
:105000002CB9AC4201D0012070BD0020FCE70DB9E5
:105010000120F9E705E0207808B90020F4E7641CD6
:105020006D1C207802F08AFC0646287802F086FC87
:105030008642F0D0207802F081FC0646287802F003
:105040007DFC301AE0E770B50446204602F0E8FE29
:10505000451C2846E74909688847061E00D170BDEF
:105060002A462146304602F051FF3046F7E730B974
:10507000E149E04A1160E149E14A11607047016885
:1050800009B1016800E0DC49DA4A1160416809B100
:10509000416800E0D949DA4A116000BFEEE710B577
:1050A0002820D4490968884704461CB12821204695
:1050B00002F0CDFF204610BD70B5044622E0256801
:1050C000A08900F4807020B9A06810B1A068FFF733
:1050D000F3FFA08900F4807028B9206918B1C8498D
:1050E000206909688847A08900F4007028B9206AFF
:1050F00018B1C349206A096888472046C049096831
:1051000088472C46002CDAD170BD2DE9F0412DEDF9
:105110000E8B05460C469FEDBB0BB0EE408AF0EEC1
:10512000608A9FEDBA0BB0EE40AAF0EE60AA9FED48
:10513000B50BB0EE409AF0EE609A00260127207879
:105140002D2806D19FEDB30BB0EE40AAF0EE60AA79
:10515000641C2078302800D1641C2078312821DBA1
:10516000207839281EDC00BF14F8011BA1F13000A3
:1051700005F0A7FD41EC1B0B9FEDA80B53EC102B8A
:1051800051EC180B05F0F0FD41EC1C0B53EC1B2B04
:1051900005F018FB41EC180B2078302802DB207852
:1051A0003928E1DD20782E282FD1607830282CDBBB
:1051B0006078392829DC641C00BF14F8011BA1F1B8
:1051C000300005F07EFD41EC1B0B9FED940B53EC82
:1051D000102B51EC180B05F0C7FD41EC1C0B53ECE8
:1051E0001B2B05F0EFFA41EC180B9FED880B53ECED
:1051F000102B51EC190B05F0C3FF41EC190B207873
:10520000302802DB20783928D7DD2078652802D0C5
:105210002078452819D1641C20782B2801D1641CE2
:1052200005E020782D2802D14FF0FF37641C06E0FE
:1052300014F8010B303806EB860100EB41062078AC
:10524000302802DB20783928F2DD06FB07F005F074
:1052500038FD41EC1E0B53EC192B05F0B3FA41EC71
:105260001D0BB0EE4D1AF0EE6D1A9FED6C0B04F0B5
:105270002FFBB0EE40BAF0EE60BA53EC182B51ECB5
:105280001A0B05F071FD41EC1C0B53EC1B2B05F0C8
:105290006BFD41EC180B85ED068B51EC180B05F0FE
:1052A000E1FC68610320E8602046BDEC0E8BBDE8A0
:1052B000F0810146491E41EA610141EAA10141EA4A
:1052C000211141EA212141EA2141481C70472DE981
:1052D000F04104460E460CB1206810B90020BDE82C
:1052E000F081A06806446068B04203DBA1682068D2
:1052F0000844F4E73046FFF7DCFF074638463D49EF
:105300000968884705463DB93D49206809688847CE
:10531000002060602060E2E725B12846D4E9001251
:1053200002F0F4FD36492068096888476760256007
:10533000A0682844D3E770B504460CB1206808B9CA
:10534000002070BDA16820684518284602F068FD5D
:10535000A1680844F5E770B52DED088B06460C46AC
:10536000002596ED060BB0EE408AF0EE608A9FEDC8
:10537000250B53EC102B51EC180B05F037FC11D119
:105380002CB102212046FFF7A2FF054604E00220CF
:105390001849096888470546002D02D021A00088D9
:1053A0002880E9E0706905F08CFC41EC1B0B53ECA4
:1053B000182B05F0E5FE41EC1A0BB0EE4A0AF0EEB0
:1053C0006A0A04F0EFF9B0EE409AF0EE609A9FEDB1
:1053D000160B53EC102B51EC190B05F089FC4BD834
:1053E0009FED130B53EC102B51EC180B24E0000035
:1053F0002C0000203000002091780008EF78000891
:105400003400002000000000000000000000000048
:105410000000F03F000000000000F0BF00000000AE
:105420000000244030000000000000000000B03CFC
:105430000000C0FFFFFFDF4105F05AFC1CD89FEDC4
:10544000F80B53EC102B51EC180B05F08BFD13D817
:105450002CB115212046FFF73AFF054604E0152040
:10546000F149096888470546002D04D0EFA1284678
:10547000726902F08BFA7FE02CB140212046FFF7E1
:1054800026FF054604E04020E749096888470546AD
:10549000002D71D0B0EE480AF0EE680A04F08CF9E5
:1054A000B0EE40BAF0EE60BA53EC182B51EC1B0B87
:1054B00005F066FE41EC1A0BB0EE4A0AF0EE6A0AFD
:1054C00004F070F9B0EE409AF0EE609A1FED2A0BEE
:1054D00053EC102B51EC190B05F00AFC19D8B0EE67
:1054E000480AF0EE680A04F05DF9B0EE409AF0EE7A
:1054F000609A9FEDCF0B53EC102B51EC190B05F07C
:10550000F7FB06D253EC182BCBA1284602F03EFA4B
:1055100032E0B0EE480AF0EE680A04F043F9B0EE6B
:10552000409AF0EE609A9FEDC60B53EC102B51ECB5
:10553000190B05F0DDFB12D3B0EE480AF0EE680A55
:1055400004F030F9B0EE409AF0EE609A9FEDBE0B99
:1055500053EC102B51EC190B05F004FD06D253EC63
:10556000182BBBA1284602F011FA05E053EC182BCA
:10557000B8A1284602F00AFA2846BDEC088B70BD97
:10558000014600220878302806DB0878392803DC39
:1055900008783038024415E00878412806DB08789E
:1055A000462803DC0878373802440BE00878612885
:1055B00006DB0878662803DC08785738024401E0E7
:1055C000002070471201491C0878302806DB087853
:1055D000392803DC08783038024415E0087841287F
:1055E00006DB0878462803DC0878373802440BE0ED
:1055F0000878612806DB0878662803DC08785738C5
:10560000024401E00020DCE71201491C0878302840
:1056100006DB0878392803DC08783038024415E0C6
:105620000878412806DB0878462803DC08783738F4
:1056300002440BE00878612806DB0878662803DC62
:1056400008785738024401E00020BAE71201491CEB
:105650000878302806DB0878392803DC08783038E9
:10566000024415E00878412806DB0878462803DC68
:105670000878373802440BE00878612806DB0878A0
:10568000662803DC08785738024401E0002098E7D8
:10569000104696E72DE9F05F8346884608F101043D
:1056A000002798F80000222805D06B48C0F8008039
:1056B0000020BDE8F09F04E014F8011B5C2900D134
:1056C000641C2078222804D0207810B1781C071E92
:1056D000F2D1781C5449096888478146B9F1000F16
:1056E00001D10020E5E708F101044D46BEE0207835
:1056F0005C2804D014F8010B05F8010BB6E0641C1B
:105700002078722818D006DC622809D066280BD0D1
:105710006E287DD10CE0742812D07528F9D113E0E1
:10572000082005F8010B9FE00C2005F8010B9BE019
:105730000A2005F8010B97E00D2005F8010B93E016
:10574000092005F8010B8FE0601CFFF719FF0646E2
:10575000241DB6F55C4F02D3B6F5604F00D306B9F1
:1057600082E0B6F5584F1CD3B6F55C4F19D260787D
:105770005C2802D1A078752800D075E0E01CFFF706
:10578000FFFE8246A41DBAF55C4F02D3BAF5604F06
:1057900000D369E0C6F30901504661F39F2000F58C
:1057A00080360427802E01D2012708E0B6F5006F6D
:1057B00001D2022703E0B6F5803F00D203273D4423
:1057C000012F20D0022F15D0032F0AD0042F24D16F
:1057D00006F0BF0040F08001681E05460170B60962
:1057E00000BF06F0BF0040F08001681E0546017052
:1057F000B60900BF06F0BF0040F08001681E0546F4
:105800000170B60900BF1548C05D3043C1B200E069
:1058100026E0681E0546017000BF00BF3D4423E03E
:10582000000000000000E0C13000002025640000FE
:1058300044F3C2E4E4E9634C252E30660000000026
:105840008DEDB5A0F7C6B03E0000000065CDCD419E
:1058500025650000256600002C000020ACB500087E
:10586000207805F8010B00BF00BF641C20782228B7
:1058700003D0207800287FF43AAF002028702078E9
:10588000222800D1641CCBF810900420CBF80C0027
:1058900020460EE72DE9F05F804689460027BB468B
:1058A000454611E02878002802DD2878202805DB0D
:1058B0002878222802D028785C2801D1012000E035
:1058C000002040EA0B0B6D1C28780028EAD1BBF1C0
:1058D000000F22D1A5EB0807B9F1000F05D0F91C84
:1058E0004846FFF7F4FC064604E0F81CFC4909684A
:1058F0008847064616B90020BDE8F09F34462220AE
:1059000004F8010B4146204602F066FA2220E055D9
:105910000021781C21543046EEE7B8F1000F16D173
:10592000B9F1000F05D003214846FFF7D0FC064629
:1059300004E00320EA490968884706460EB90020BA
:10594000DAE7E8A1304602F047FA3046D4E74546A8
:105950000BE05146E4A002F0E5F908B17F1C03E03A
:10596000BAF1200F00DA7F1D6D1C95F800A0BAF186
:10597000000F02D0781C071EEBD1B9F1000F05D043
:10598000F91C4846FFF7A3FC064604E0F81CD4497E
:105990000968884706460EB90020ADE734464546FB
:1059A000222004F8010B47E028781F280ADD287818
:1059B000222807D028785C2804D015F8010B04F8B9
:1059C000010B39E05C2004F8010B15F8011B8A4635
:1059D0000C2919D006DC082912D0092920D00A295F
:1059E00022D115E00D2917D0222905D05C291BD121
:1059F0005C2004F8010B1EE0222004F8010B1AE0E1
:105A0000622004F8010B16E0662004F8010B12E096
:105A10006E2004F8010B0EE0722004F8010B0AE07E
:105A2000742004F8010B06E05246B1A1204601F0B3
:105A3000ADFF641D00BF00BF28780028B4D122202C
:105A400004F8010B002004F8010B304654E770B550
:105A500004460D4629462069FFF71CFF70BD00E093
:105A6000401C20B1017811B101782029F8DD704780
:105A70002DE9F04706460C4620787B2804D09E4846
:105A800004600020BDE8F0870620F060601CFFF78E
:105A9000E6FF044620787D2801D1601CF2E7FFF77D
:105AA000FEFA0546B060B06808B90020EAE7204673
:105AB000FFF7D5FF804641462846FFF7EBFD074636
:105AC000FFF7CDFF04460CB90020DBE72869286208
:105AD0000020286120783A2803D0874804600020FD
